:100000001CC02BC02AC029C028C03FC126C025C0A3
:100010008FC123C022C0A8C120C01FC01EC01DC0E8
:100020001CC0C8C823012607210122013104434F07
:1000300032206D696E692076310011241FBECFE534
:10004000D1E0DEBFCDBF20E0A0E6B0E001C01D9250
:10005000AB37B207E1F757D23EC4D2CF882331F095
:100060009DE09A95F1F700008150F8CFA89508958A
:10007000009761F02FE738E341E0215030404040E5
:10008000E1F700C00000A8950197F2CF0895FF9214
:100090000F931F93CF93DF93F82E062F10E0C42FFA
:1000A000D0E0D99AFF2039F0C801E2DFD998CE011B
:1000B000DFDFFA94F6CFDF91CF911F910F91FF9080
:1000C00008958FB980E48EB98BE18DB9769BFDCF11
:1000D0008FB10895EF92FF921F93CF93DF9300D0DB
:1000E000CDB7DEB7142FDB9869837A83EADF6981A5
:1000F000E62E7A81F72E160F1E1531F08FEFE1DF15
:10010000F70181937F01F8CFDB9A0F900F90DF9179
:10011000CF911F91FF90EF900895CF93DF931F929F
:10012000CDB7DEB7DB986983CCDF6981862FC9DF65
:10013000DB9A0F90DF91CF910895EF92FF921F937A
:10014000CF93DF9300D0CDB7DEB7142FDB98698350
:100150007A83B7DF6981E62E7A81F72E160F1E1596
:1001600029F0F70181917F01ACDFF9CFDB9A0F9085
:100170000F90DF91CF911F91FF90EF900895DB9842
:10018000A0DFDB9A0895CF93C82F682F6E6780E2B7
:10019000C4DFC0FF04C060E787E2BFDFDA9ACF9117
:1001A00008951F93CF93DF93EC018FEFE8DF182FB3
:1001B00086FF0CC044E0BE0181E68CDF60E787E289
:1001C000ACDF812F869587708F5F01C080E0DF9163
:1001D000CF911F910895CF93DF93EC01DA9860E7F8
:1001E00087E29BDF81EECBDF44E0BE0180EAA5DF42
:1001F000DA9ACFEF8AE032DF8FEFC1DF982F90736A
:1002000021F4C150B9F782E005C085FB882780F949
:1002100091E08927DF91CF910895CF93C82F8093E4
:10022000770042E050E062E270E088E790E019D3A6
:1002300043E067E770E08AE280DF43E067E770E071
:1002400080E37BDF43E067E770E080E143DF81E04C
:10025000909177009C1380E0CF9108951F93CF93E6
:10026000DF93182FDB9AC4E2D0E0FE01849131962F
:10027000649153DF2296F0E0CE32DF07B1F7612FB1
:1002800085E2DF91CF911F9148CF1F920F920FB659
:100290000F9211242F933F938F939F93809161002E
:1002A00090916200909364008093630084B595B54B
:1002B00090936200809361000EB406FE04C08EB578
:1002C0008F7B8EBD2CC08EB580648EBD8091610009
:1002D0009091620001962091630030916400821B2E
:1002E000930B96958795813D27E0920738F42091EE
:1002F000660030916700280F391F02C020ED37E0FB
:100300008091680090916900820F931F9695879560
:10031000909369008093680082E0809365009F91CC
:100320008F913F912F910F900FBE0F901F901895B6
:100330001F920F920FB60F9211248F939F9380916B
:100340006500882321F081508093650006C080ED10
:1003500097E090936900809368009F918F910F9030
:100360000FBE0F901F90189578941F920F920FB6A2
:100370000F9211248F939F93809160008F5F8093E1
:100380006000853159F41092600080916B008823E1
:1003900029F080916B00815080936B00B09908C068
:1003A00080916A008F3F31F08F5F80936A0002C0B6
:1003B00010926A0080917200882319F08150809316
:1003C000720080917000882339F0D9988091700074
:1003D00081508093700045C080916F00882329F080
:1003E000D99A80916F0081500FC080916E00882350
:1003F00071F0815080936E009AE1909370008111AA
:1004000002C08CE00FC088E080936F002AC080910A
:100410006D00882379F0815080936D0085E0809392
:10042000700087E080936F0080916D00811119C08A
:1004300082E3EACF80917100882399F08091710066
:1004400082958F7080936E00809171008F70809381
:100450006D0080916C00882321F010926C00109246
:1004600071009F918F910F900FBE0F901F90189564
:1004700090917100911105C091E090936C00809370
:100480007100089510926F001092700010926D002C
:1004900010926E0080937100882319F081E08093A0
:1004A0006C00D99A089580E090E0E4D18F3F09F084
:1004B00081BF87E090E0E6D190936700809366006B
:1004C00008956FEC81E090E0E1D169E782E090E08F
:1004D000DDD16FE083E090E0D9D16EE184E090E07F
:1004E000D5D168EE73E085E090E0E2D160E070E0A5
:1004F00087E090E0DDD161EC89E090E0C7D160E079
:100500008AE090E0C3C180E886BD91E096BD80E2BC
:1005100085BF82E08ABB8AB38C638ABBC09AD89AB3
:1005200088B3866088BB83E080BF2DE023BF29EBC2
:1005300026BF99BF8FBD89E58EBD8FEF9FEF9BBD15
:100540008ABD81E28CB981E090E094D18F3F09F4BB
:10055000B8DFA9DF88E181BD8EE081BD789441E0FC
:1005600061E082E094DD82E090E084D177DE83E098
:1005700090E080D1682F84E2D0DD81E090E07AD1F4
:100580004CDE811105C041E061E085E080DDF5CF02
:1005900081E0F9DD8FE080936B001FEF04E18AE0DA
:1005A0005DDD83E790E0FDDD882309F4A9C081E0EB
:1005B0005FDF209176002F3819F400937200A0C0FD
:1005C0008FE7820F823000F580917500833108F04B
:1005D00095C090917200992309F490C090E0213861
:1005E00031F4609173008050904050D107C0609109
:1005F000730070917400805090405AD154DF82E0B3
:1006000037DF009372007AC08FE3820F823008F0E8
:1006100077C080917500811111C080917300909115
:1006200074008331910508F076C080509040213CE1
:1006300019F420D190E02DC025D12BC08130C1F418
:10064000F89480917600E0917300F0917400813C01
:1006500019F4808190E002C08081918190937400B0
:1006600080937300789410927600109275001BC0EE
:100670008230A1F4E0917300F0917400213C39F4D0
:10068000E491F0E0F0937400E0937300ECCF859177
:1006900094919093740080937300E5CF843019F4A3
:1006A000D998F894FFCF81E090E0E2DC80E06BDD48
:1006B000809175008330B9F4CEE2D0E0FE018491E0
:1006C00090E0909374008093730083E790E083DD63
:1006D000F82E81110CC08FEFC1DC2196F0E0CA33F7
:1006E000DF0761F704C083E790E075DDF82E81E055
:1006F0004ADDFF2019F080E18F0DC4DE10936B00FE
:1007000080916A00893C38F041E061E082E3BFDC1F
:10071000D8DEF894FFCF80916B00811140CF41E08B
:1007200061E083E0B4DCE1B782E080936B00F1E04C
:1007300020E030E06FEF7FE78895A8950EB406FCC7
:1007400032C0F8944091630050916400CA01821B4A
:10075000930B7894F11129C08F599F406430710533
:1007600084F49C0197FF04C022273327281B390BF0
:100770006217730734F4E1BF61B780E090E086D080
:100780001BC0E1B797FF02C021E003C00097A1F0B2
:100790002FEF2E0F21BF97FF03C0919581959109EF
:1007A000BC01F1E003C0A90101C0F0E080916B0041
:1007B000882311F09A01C0CF80E0E5DC84E090E06E
:1007C00059D087FF880F80936B0000E0FF24F394DB
:1007D0008895A89580916B008111FACF10927600D0
:1007E00010927500F8948091680090916900909340
:1007F0007400809373007894C0917300D09174005A
:1008000085E090E03FD08C179D0710F4F0927500C2
:10081000C0E0D0E01C2FCE01875F9F4F2BD08823F4
:10082000C9F0013031F0F9DC811103C080E220DE33
:1008300011C083E790E0CFDC823029F0882329F0D3
:1008400081E1810F01C080E313DE2196CA30D1051A
:1008500009F71AE084E090E00DD080936B00012F3F
:10086000B7CFFB01DC0102C005900D924150504012
:10087000D8F70895E199FECF1FBA8EBBE09A992769
:100880008DB30895A8E1B0E042E018C0262FE199A9
:10089000FECF1FBA8EBBE09A81500DB2021639F01E
:1008A0001CBA2DBB0FB6F894E29AE19A0FBE0895D8
:1008B0000196272FECDFEACFDC01862FE82FE199A4
:1008C000FECF1FBA05C0EEBBE09AE3950DB20D92C4
:0A08D0004150C8F70895F894FFCFD7
:00000001FF
