:100000001CC02BC02AC029C028C049C126C025C099
:1000100024C023C022C093C120C01FC01EC01DC069
:100020001CC0C8C823012607210122013104434F07
:1000300032206D696E692076310011241FBECFE534
:10004000D1E0DEBFCDBF20E0A0E6B0E001C01D9250
:10005000AA37B207E1F742D21AC4D2CF882331F0CF
:100060009DE09A95F1F700008150F8CFA89508958A
:10007000009761F02FE738E341E0215030404040E5
:10008000E1F700C00000A8950197F2CF0895FF9214
:100090000F931F93CF93DF93F82E062F10E0C42FFA
:1000A000D0E0D99AFF2039F0C801E2DFD998CE011B
:1000B000DFDFFA94F6CFDF91CF911F910F91FF9080
:1000C00008958FB980E48EB98BE18DB9769BFDCF11
:1000D0008FB10895DB988F71F4DF8FEFF2DFDB9A39
:1000E0000895EF92FF921F93CF93DF9300D0CDB787
:1000F000DEB7142FDB9869837A83E3DF6981E62E0C
:100100007A81F72E160F1E1531F08FEFDADFF70127
:1001100081937F01F8CFDB9A0F900F90DF91CF9101
:100120001F91FF90EF900895CF93DF931F92CDB76B
:10013000DEB7DB986983C5DF6981862FC2DFDB9A72
:100140000F90DF91CF910895EF92FF921F93CF937D
:10015000DF9300D0CDB7DEB7142FDB9869837A83A5
:10016000B0DF6981E62E7A81F72E160F1E1529F071
:10017000F70181917F01A5DFF9CFDB9A0F900F90F6
:10018000DF91CF911F91FF90EF900895DB9899DF59
:10019000DB9A0895CF93C82F682F6E6780E2C4DF83
:1001A000C0FDDA9ACF9108951F93CF93DF93EC01AE
:1001B0008FEFECDF182F86FF0CC044E0BE0181E614
:1001C00090DF60E787E2B0DF812F869587708F5FD1
:1001D00005C087E17FDF80FFF0CF80E0DF91CF9126
:1001E0001F910895CF93DF93EC01DA9881EECEDF73
:1001F00060E787E299DF44E0BE0180EAA5DFDA9A92
:10020000C0E08AE02BDF8FEFC1DF982F907319F4E5
:10021000CF5FB9F708C0CC2331F085FB882780F980
:1002200091E0892701C082E0DF91CF910895CF93BB
:10023000C82F8093760042E050E062E270E087E7EA
:1002400090E0EBD243E066E770E08AE27DDF43E0D6
:1002500066E770E080E378DF43E066E770E080E126
:1002600040DF81E0909176009C1380E0CF9108956B
:100270001F93CF93DF93182FDB9AC4E2D0E0FE01E7
:1002800084913196649150DF2296F0E0CE32DF0700
:10029000B1F7612F85E2DF91CF911F9145CF1F927A
:1002A0000F920FB60F9211242F933F938F939F932A
:1002B000809161009091620090936400809363004C
:1002C00084B595B590936200809361000EB406FEEC
:1002D00004C08EB58F7B8EBD29C08EB580648EBD67
:1002E00080916100909162000196209163003091AD
:1002F0006400821B930B96958795813D27E09207BA
:1003000038F42091650030916600280F391F02C033
:1003100020ED37E08091670090916800820F931F75
:100320009695879590936800809367009F918F9131
:100330003F912F910F900FBE0F901F9018957894BA
:100340001F920F920FB60F9211248F939F9380915B
:1003500060008F5F80936000853159F410926000D7
:1003600080916A00882329F080916A0081508093EF
:100370006A00B09908C0809169008F3F31F08F5FAB
:100380008093690002C010926900809171008823F7
:1003900019F081508093710080916F00882339F0AB
:1003A000D99880916F00815080936F0045C08091F3
:1003B0006E00882329F0D99A80916E0081500FC079
:1003C00080916D00882371F0815080936D009AE1D7
:1003D00090936F00811102C08CE00FC088E0809381
:1003E0006E002AC080916C00882379F08150809340
:1003F0006C0085E080936F0087E080936E008091B1
:100400006C00811119C082E3EACF809170008823CB
:1004100099F08091700082958F7080936D0080912B
:1004200070008F7080936C0080916B00882321F0A6
:1004300010926B00109270009F918F910F900FBEE1
:100440000F901F90189590917000911105C091E048
:1004500090936B0080937000089510926E0010923C
:100460006F0010926C0010926D00809370008823D2
:1004700019F081E080936B00D99A089580E090E0B4
:10048000D5D18F3F09F081BF87E090E0D7D190931D
:1004900066008093650008956FEC81E090E0D2D112
:1004A00069E782E090E0CED16FE083E090E0CAD1CE
:1004B0006EE184E090E0C6D168EE73E085E090E004
:1004C000D3D160E070E087E090E0CED161EC89E0CC
:1004D00090E0B8D160E08AE090E0B4C180E886BDE9
:1004E00091E096BD20E225BF82E08ABB8AB38C638F
:1004F0008ABBC09AD89A88B3866088BB83E080BFE5
:100500003DE033BF39EB36BF99BF8FBD89E58EBD66
:100510008FEF9FEF9BBD8ABD2CB981E090E086D123
:100520008F3F09F4B9DFAADF88E181BD8EE081BD8C
:10053000789441E061E082E0AADD82E090E076D14B
:1005400097DE83E090E072D1682F84E2EDDD81E0F8
:1005500090E06CD16CDE811105C041E061E085E086
:1005600096DDF5CF81E016DE8FE080936A001FEF05
:1005700004E18AE073DD82E790E016DE882309F467
:10058000A9C081E060DF209175002F3819F4009335
:100590007100A0C08FE7820F823000F58091740057
:1005A000833108F095C090917100992309F490C0AF
:1005B00090E0213831F4609172008050904042D137
:1005C00007C06091720070917300805090404CD1D0
:1005D00055DF82E038DF009371007AC08FE3820F2D
:1005E000823008F077C080917400811111C0809131
:1005F0007200909173008331910508F076C08050AD
:100600009040213C19F412D190E02DC017D12BC09D
:100610008130C1F4F89480917500E0917200F091FE
:100620007300813C19F4808190E002C08081918147
:1006300090937300809372007894109275001092DA
:1006400074001BC08230A1F4E0917200F09173003D
:10065000213C39F4E491F0E0F0937300E0937200F0
:10066000ECCF859194919093730080937200E5CFC5
:10067000843019F4D998F894FFCF81E090E0F8DC49
:1006800080E088DD809174008330B9F4CEE2D0E060
:10069000FE01849190E0909373008093720082E752
:1006A00090E0A0DDF82E81110CC08FEFD7DC2196F1
:1006B000F0E0CA33DF0761F704C082E790E092DD23
:1006C000F82E81E067DDFF2019F080E18F0DC5DE97
:1006D00010936A0080916900893C38F041E061E044
:1006E00082E3D5DCD9DEF894FFCF80916A008111D6
:1006F00040CF41E061E083E0CADCE1B782E0809373
:100700006A00F1E020E030E06FEF7FE78895A89580
:100710000EB406FC32C0F89440916300509164001E
:10072000CA01821B930B7894F11129C08F599F4005
:100730006430710584F49C0197FF04C0222733279D
:10074000281B390B6217730734F4E1BF61B780E0EF
:1007500090E078D01BC0E1B797FF02C021E003C052
:100760000097A1F02FEF2E0F21BF97FF03C09195A7
:1007700081959109BC01F1E003C0A90101C0F0E03D
:1007800080916A00882311F09A01C0CF80E002DDD9
:1007900011E08895A89580916A008111FACF109296
:1007A000750010927400F894809167009091680031
:1007B00090937300809372007894C0917200D091EE
:1007C000730085E090E03AD08C179D0710F41093E9
:1007D0007400C0E0D0E0CE01875F9F4F27D0882310
:1007E000B1F025DD811103C080E22DDE10C082E76B
:1007F00090E0F8DC823029F0882329F08C2F8F5E7E
:1008000001C080E320DE2196CA30D10521F784E0C3
:1008100090E00CD080936A00BCCFFB01DC0102C0E9
:1008200005900D9241505040D8F70895E199FECFC0
:100830001FBA8EBBE09A99278DB30895A8E1B0E066
:1008400042E018C0262FE199FECF1FBA8EBBE09A76
:1008500081500DB2021639F01CBA2DBB0FB6F894B8
:10086000E29AE19A0FBE08950196272FECDFEACFB6
:10087000DC01862FE82FE199FECF1FBA05C0EEBB41
:10088000E09AE3950DB20D924150C8F70895F8949F
:02089000FFCF98
:00000001FF
