:100000001CC036C035C034C033C054C131C030C04C
:100010009CC12EC02DC0B5C12BC02AC029C028C08C
:1000200027C0C8C823012607210122013104434FFC
:1000300032206D696E692076320011241FBECFE533
:10004000D1E0DEBFCDBF10E0A0E6B0E0ECE8F9E023
:1000500002C005900D92A236B107D9F720E0A2E6C2
:10006000B0E001C01D92A038B207E1F772D28CC493
:10007000C7CF882331F09DE09A95F1F700008150B9
:10008000F8CFA8950895009761F02FE738E341E095
:10009000215030404040E1F700C00000A895019792
:1000A000F2CF0895FF920F931F93CF93DF93F82E13
:1000B000062F10E0C42FD0E0D99AFF2039F0C801F4
:1000C000E2DFD998CE01DFDFFA94F6CFDF91CF914E
:1000D0001F910F91FF9008958FB980E48EB98BE145
:1000E0008DB9769BFDCF8FB10895DB988F71F4DFCA
:1000F0008FEFF2DFDB9A0895EF92FF921F93CF9379
:10010000DF9300D0CDB7DEB7142FDB9869837A83F5
:10011000E3DF6981E62E7A81F72E160F1E1531F086
:100120008FEFDADFF70181937F01F8CFDB9A0F9031
:100130000F90DF91CF911F91FF90EF900895CF9393
:10014000DF931F92CDB7DEB7DB986983C5DF698186
:10015000862FC2DFDB9A0F90DF91CF910895EF9247
:10016000FF921F93CF93DF9300D0CDB7DEB7142F4C
:10017000DB9869837A83B0DF6981E62E7A81F72E76
:10018000160F1E1529F0F70181917F01A5DFF9CF28
:10019000DB9A0F900F90DF91CF911F91FF90EF901E
:1001A0000895DB9899DFDB9A0895CF93C82F682FC5
:1001B0006E6780E2C4DFC0FDDA9ACF9108951F9385
:1001C000CF93DF93EC018FEFECDF182F86FF0CC08D
:1001D00044E0BE0181E690DF60E787E2B0DF812F77
:1001E000869587708F5F05C087E17FDF80FFF0CF46
:1001F00080E0DF91CF911F910895CF93DF93EC01C1
:10020000DA9881EECEDF60E787E299DF44E0BE0155
:1002100080EAA5DFDA9AC0E08AE02BDF8FEFC1DF4A
:10022000982F907319F4CF5FB9F708C0CC2331F041
:1002300085FB882780F991E0892701C082E0DF9162
:10024000CF910895CF93C82F80937B0042E050E078
:1002500062E270E08CE790E05DD343E06BE770E032
:100260008AE27DDF43E06BE770E080E378DF43E024
:100270006BE770E080E140DF81E090917B009C13B0
:1002800080E0CF9108951F93CF93DF93182FDB9ACF
:10029000C4E2D0E0FE0184913196649150DF229651
:1002A000F0E0CE32DF07B1F7612F85E2DF91CF9129
:1002B0001F9145CF1F920F920FB60F9211242F93CB
:1002C0003F938F939F9380916400909165009093EA
:1002D00067008093660084B595B590936500809320
:1002E00064000EB406FE04C08EB58F7B8EBD24C0A4
:1002F0008EB580648EBD80916400909165000196FA
:100300002091660030916700821B930B969587952C
:10031000813D27E0920738F420916A0030916B000C
:10032000280F391F02C020ED37E030936D00209375
:100330006C0082E0809369009F918F913F912F9193
:100340000F900FBE0F901F9018951F920F920FB62F
:100350000F9211248F939F9380916900882321F03D
:1003600081508093690006C080ED97E090936D0006
:1003700080936C009F918F910F900FBE0F901F90F4
:10038000189578941F920F920FB60F9211248F93A5
:100390009F93809163008F5F80936300823309F0A5
:1003A00076C010926300809162008F5F809362003C
:1003B0008A3091F41092620080916F00882329F0B6
:1003C00080916F00815080936F008091600088233E
:1003D00019F081508093600080917600882319F095
:1003E00081508093760080917400882339F0D998E9
:1003F0008091740081508093740049C08091730093
:10040000882329F0D99A8091730081500FC0809180
:100410007200882371F08150809372009CE0909369
:100420007400811102C086E00EC084E080937300E6
:100430002EC080917100882371F0815080937100EB
:1004400083E0809374008093730080917100811128
:100450001EC088E1EBCF809175008823A1F08091C8
:10046000750082958F7080937200809175008F70F7
:100470008093710080917000882349F01092700081
:100480001092750004C08091680080FDD99881E0C9
:1004900080936E009F918F910F900FBE0F901F90D1
:1004A000189590917500911105C091E0909370009E
:1004B000809375000895109273001092740010924A
:1004C00071001092720080937500882319F081E00A
:1004D00080937000D99A089580E090E024D28F3FF5
:1004E00009F081BF87E090E026D290936B00809363
:1004F0006A0084E190E017D280937F0008956FEC4A
:1005000081E090E01CD26AE782E090E018D26FE0D0
:1005100083E090E014D26EE184E090E010D268EEC7
:1005200073E085E090E01DD260E070E087E090E04D
:1005300018D261EC89E090E002D260E08AE090E0BD
:10054000FED161E083E190E0FAD160E084E190E0E7
:10055000F6C180E886BD91E096BD80E285BF82E06D
:100560008ABB8AB38C638ABBC09AD89A88B38660E8
:1005700088BB83E080BF2CE023BF2EE126BF99BF5C
:100580008FBD89E58EBD8FEF9FEF9BBD8ABD81E258
:100590008CB981E090E0C7D18F3F09F4B0DF9CDFD8
:1005A00088E181BD8EE081BD789441E061E082E028
:1005B00079DD8AE080936F00B0990CC0A895809196
:1005C0006F008111F9CF41E061E082E36BDD97DFDD
:1005D000F894FFCF82E090E0A6D155DE83E090E072
:1005E000A2D1682F84E2ABDD81E090E09CD12ADECD
:1005F000811104C041E061E085E054DDE1B782E0B3
:1006000080936F0081E020E030E06FEF7FE7889516
:10061000A8950EB406FC32C0F89440916600509143
:100620006700789481112CC0CA01821B930B8F59EB
:100630009F406430710584F49C0197FF04C0222719
:100640003327281B390B6217730734F4E1BF61B7F6
:1006500080E090E074D11BC0E1B797FF02C021E0B9
:1006600003C00097A1F02FEF2E0F21BF97FF03C00B
:10067000919581959109BC0181E003C0A90101C058
:1006800080E090916F00992311F09A01C0CF84E02F
:1006900090E049D187FF880F80936F0081E085DD6E
:1006A0001FEF05E08895A89580916E008823D1F30F
:1006B00010926E0080916000811104C080917F00D3
:1006C00080FDD0C087E790E07ADD882309F4CAC0B6
:1006D00081E0E7DE20917A002F3819F4009376004C
:1006E000E1CF8FE7820F823000F58091790085316C
:1006F00008F0B5C090917600992309F4B0C090E05D
:10070000213831F4609177008050904018D107C0B3
:1007100060917700709178008050904022D1DCDEAB
:1007200082E0BFDE009376009AC0203489F4809185
:100730007900811194C09091770091708091680048
:100740008E7F892B80936800911189C0D99A87C0C8
:100750008FE3820F823008F0A5CF8091790081115C
:1007600011C080917700909178008531910508F053
:1007700099CF80509040213C19F4D5D090E02DC005
:10078000DAD02BC08130C1F4F89480917A00E091E6
:100790007700F0917800813C19F4808190E002C0EC
:1007A0008081918190937800809377007894109263
:1007B0007A00109279001BC08230A1F4E09177009A
:1007C000F0917800213C39F4E491F0E0F093780066
:1007D000E0937700ECCF859194919093780080938B
:1007E0007700E5CF843019F4D998F894FFCF81E0F1
:1007F00090E049DC80E0D9DC809179008330F9F425
:10080000CEE2D0E0FE01849190E090937800809356
:10081000770087E790E0F1DCF82E811114C0E12C1D
:1008200083E190E080D0E81620F484E622DCE394B3
:10083000F7CF2196F0E0CA33DF0721F704C087E73E
:1008400090E0DBDCF82E81E0B0DCFF2041F082E0BC
:10085000F81619F080E18F0D01C080E32CDE1093B3
:10086000600020CF80916F0081111CCF9EDC109220
:100870007A0010927900F89480916C0090916D004C
:1008800090937800809377007894C0917700D0910E
:10089000780085E090E04FD08C179D0718F481E038
:1008A00080937900C0E0D0E0CE01875F9F4F3BD0BE
:1008B0008823B1F0C7DC811103C080E2F2DD10C0F3
:1008C00087E790E09ADC882339F0823019F08C2F8A
:1008D0008F5E01C080E3E5DD2196CA30D10521F7A6
:1008E00080916000811106C080917F0080FF02C06E
:1008F000DA980AC081E090E016D0A4DC811102C031
:1009000080E2CFDD81E051DC84E090E00CD0809388
:100910006F00C8CEFB01DC0102C005900D92415072
:100920005040D8F70895E199FECF1FBA8EBBE09AE8
:1009300099278DB30895A8E1B0E042E018C0262FB2
:10094000E199FECF1FBA8EBBE09A81500DB202161C
:1009500039F01CBA2DBB0FB6F894E29AE19A0FBE9B
:1009600008950196272FECDFEACFDC01862FE82FD0
:10097000E199FECF1FBA05C0EEBBE09AE3950DB238
:0C0980000D924150C8F70895F894FFCF85
:02098C000F005A
:00000001FF
