:100000001CC036C035C034C033C054C131C030C04C
:100010009CC12EC02DC0B5C12BC02AC029C028C08C
:1000200027C0C8C823012607210122013104434FFC
:1000300032206D696E692076320011241FBECFE533
:10004000D1E0DEBFCDBF10E0A0E6B0E0ECE5F9E026
:1000500002C005900D92A236B107D9F720E0A2E6C2
:10006000B0E001C01D92AF37B207E1F76DD274C4A2
:10007000C7CF882331F09DE09A95F1F700008150B9
:10008000F8CFA8950895009761F02FE738E341E095
:10009000215030404040E1F700C00000A895019792
:1000A000F2CF0895FF920F931F93CF93DF93F82E13
:1000B000062F10E0C42FD0E0D99AFF2039F0C801F4
:1000C000E2DFD998CE01DFDFFA94F6CFDF91CF914E
:1000D0001F910F91FF9008958FB980E48EB98BE145
:1000E0008DB9769BFDCF8FB10895DB988F71F4DFCA
:1000F0008FEFF2DFDB9A0895EF92FF921F93CF9379
:10010000DF9300D0CDB7DEB7142FDB9869837A83F5
:10011000E3DF6981E62E7A81F72E160F1E1531F086
:100120008FEFDADFF70181937F01F8CFDB9A0F9031
:100130000F90DF91CF911F91FF90EF900895CF9393
:10014000DF931F92CDB7DEB7DB986983C5DF698186
:10015000862FC2DFDB9A0F90DF91CF910895EF9247
:10016000FF921F93CF93DF9300D0CDB7DEB7142F4C
:10017000DB9869837A83B0DF6981E62E7A81F72E76
:10018000160F1E1529F0F70181917F01A5DFF9CF28
:10019000DB9A0F900F90DF91CF911F91FF90EF901E
:1001A0000895DB9899DFDB9A0895CF93C82F682FC5
:1001B0006E6780E2C4DFC0FDDA9ACF9108951F9385
:1001C000CF93DF93EC018FEFECDF182F86FF0CC08D
:1001D00044E0BE0181E690DF60E787E2B0DF812F77
:1001E000869587708F5F05C087E17FDF80FFF0CF46
:1001F00080E0DF91CF911F910895CF93DF93EC01C1
:10020000DA9881EECEDF60E787E299DF44E0BE0155
:1002100080EAA5DFDA9AC0E08AE02BDF8FEFC1DF4A
:10022000982F907319F4CF5FB9F708C0CC2331F041
:1002300085FB882780F991E0892701C082E0DF9162
:10024000CF910895CF93C82F80937A0042E050E079
:1002500062E270E08BE790E045D343E06AE770E04C
:100260008AE27DDF43E06AE770E080E378DF43E025
:100270006AE770E080E140DF81E090917A009C13B2
:1002800080E0CF9108951F93CF93DF93182FDB9ACF
:10029000C4E2D0E0FE0184913196649150DF229651
:1002A000F0E0CE32DF07B1F7612F85E2DF91CF9129
:1002B0001F9145CF1F920F920FB60F9211242F93CB
:1002C0003F938F939F9380916400909165009093EA
:1002D00067008093660084B595B590936500809320
:1002E00064000EB406FE04C08EB58F7B8EBD24C0A4
:1002F0008EB580648EBD80916400909165000196FA
:100300002091660030916700821B930B969587952C
:10031000813D27E0920738F42091690030916A000E
:10032000280F391F02C020ED37E030936C00209376
:100330006B0082E0809368009F918F913F912F9195
:100340000F900FBE0F901F9018951F920F920FB62F
:100350000F9211248F939F9380916800882321F03E
:1003600081508093680006C080ED97E090936C0008
:1003700080936B009F918F910F900FBE0F901F90F5
:10038000189578941F920F920FB60F9211248F93A5
:100390009F93809163008F5F80936300823309F0A5
:1003A00071C010926300809162008F5F8093620041
:1003B0008A3091F41092620080916E00882329F0B7
:1003C00080916E00815080936E0080916000882340
:1003D00019F081508093600080917500882319F096
:1003E00081508093750080917300882339F0D998EB
:1003F0008091730081508093730044C0809172009B
:10040000882329F0D99A8091720081500FC0809181
:100410007100882371F08150809371009CE090936B
:100420007300811102C086E00EC084E080937200E8
:1004300029C080917000882371F0815080937000F2
:1004400083E080937300809372008091700081112B
:1004500019C088E1EBCF80917400882399F08091D6
:10046000740082958F7080937100809174008F70FA
:100470008093700080916F00882321F010926F00AC
:100480001092740081E080936D009F918F910F9086
:100490000FBE0F901F90189590917400911105C098
:1004A00091E090936F008093740008951092720011
:1004B000109273001092700010927100809374007B
:1004C000882319F081E080936F00D99A089580E025
:1004D00090E011D28F3F09F081BF87E090E013D206
:1004E00090936A008093690084E190E004D2809345
:1004F0007E0008956FEC81E090E009D26AE782E027
:1005000090E005D26FE083E090E001D26EE184E0FC
:1005100090E0FDD168EE73E085E090E00AD260E003
:1005200070E087E090E005D261EC89E090E0EFD1E7
:1005300060E08AE090E0EBD16AE083E190E0E7D10F
:1005400060E084E190E0E3C180E886BD91E096BD83
:1005500080E285BF82E08ABB8AB38C638ABBC09A83
:10056000D89A88B3866088BB83E080BF2CE023BF25
:100570002EE126BF99BF8FBD89E58EBD8FEF9FEF1E
:100580009BBD8ABD81E28CB981E090E0B4D18F3F00
:1005900009F4B0DF9CDF88E181BD8EE081BD7894F5
:1005A00041E061E082E07EDD8AE080936E00B099F8
:1005B0000CC0A89580916E008111F9CF41E061E0F7
:1005C00082E370DD97DFF894FFCF82E090E093D173
:1005D0005ADE83E090E08FD1682F84E2B0DD81E0C5
:1005E00090E089D12FDE811104C041E061E085E017
:1005F00059DDE1B782E080936E0081E020E030E0D9
:100600006FEF7FE78895A8950EB406FC32C0F8948A
:100610004091660050916700789481112CC0CA0106
:10062000821B930B8F599F406430710584F49C01A9
:1006300097FF04C022273327281B390B6217730743
:1006400034F4E1BF61B780E090E061D11BC0E1B755
:1006500097FF02C021E003C00097A1F02FEF2E0FFB
:1006600021BF97FF03C0919581959109BC0181E05D
:1006700003C0A90101C080E090916E00992311F0A0
:100680009A01C0CF84E090E036D187FF880F809335
:100690006E0081E08ADD1FEF05E08895A8958091C6
:1006A0006D008823D1F310926D008091600081115C
:1006B00004C080917E0080FDBDC086E790E07FDDB4
:1006C000882309F4B7C081E0E7DE209179002F3854
:1006D00019F400937500E1CF8FE7820F823000F5A7
:1006E00080917800853108F0A2C09091750099231F
:1006F00009F49DC090E0213831F46091760080507B
:10070000904005D107C060917600709177008050CD
:1007100090400FD1DCDE82E0BFDE0093750087C021
:100720008FE3820F823008F0B8CF8091780081117A
:1007300011C080917600909177008531910508F085
:10074000ACCF80509040213C19F4D5D090E02DC022
:10075000DAD02BC08130C1F4F89480917900E09117
:100760007600F0917700813C19F4808190E002C01E
:100770008081918190937700809376007894109295
:100780007900109278001BC08230A1F4E0917600CD
:10079000F0917700213C39F4E491F0E0F093770098
:1007A000E0937600ECCF85919491909377008093BD
:1007B0007600E5CF843019F4D998F894FFCF81E022
:1007C00090E061DC80E0F1DC809178008330F9F426
:1007D000CEE2D0E0FE01849190E090937700809388
:1007E000760086E790E009DDF82E811114C0E12C37
:1007F00083E190E080D0E81620F484E63ADCE394CC
:10080000F7CF2196F0E0CA33DF0721F704C086E76F
:1008100090E0F3DCF82E81E0C8DCFF2041F082E0BC
:10082000F81619F080E18F0D01C080E33FDE1093D0
:10083000600033CF80916E0081112FCFB6DC109213
:10084000790010927800F89480916B0090916C0080
:1008500090937700809376007894C0917600D09141
:10086000770085E090E04FD08C179D0718F481E069
:1008700080937800C0E0D0E0CE01875F9F4F3BD0EF
:100880008823B1F0DFDC811103C080E205DE10C0F7
:1008900086E790E0B2DC882339F0823019F08C2FA3
:1008A0008F5E01C080E3F8DD2196CA30D10521F7C3
:1008B00080916000811106C080917E0080FF02C09F
:1008C000DA980AC081E090E016D0BCDC811102C049
:1008D00080E2E2DD81E069DC84E090E00CD080938E
:1008E0006E00DBCEFB01DC0102C005900D92415091
:1008F0005040D8F70895E199FECF1FBA8EBBE09A19
:1009000099278DB30895A8E1B0E042E018C0262FE2
:10091000E199FECF1FBA8EBBE09A81500DB202164C
:1009200039F01CBA2DBB0FB6F894E29AE19A0FBECB
:1009300008950196272FECDFEACFDC01862FE82F00
:10094000E199FECF1FBA05C0EEBBE09AE3950DB268
:0C0950000D924150C8F70895F894FFCFB5
:02095C000F008A
:00000001FF
